:100000000C9434000C9451000C9451000C94510049
:100010000C9451000C9451000C9451000C9451001C
:100020000C9451000C9451000C9451000C9451000C
:100030000C9451000C9451000C9412010C9451003A
:100040000C9451000C9451000C9453000C948100BA
:100050000C9451000C9451000C9451000C945100DC
:100060000C9451000C94510011241FBECFEFD8E026
:10007000DEBFCDBF11E0A0E0B1E0EAE6F4E002C0EF
:1000800005900D92AE30B107D9F721E0AEE0B1E0B6
:1000900001C01D92A138B207E1F70E9419020C9429
:1000A00033020C9400001F920F920FB60F9211248E
:1000B0002F938F939F93EF93FF938091C000909124
:1000C000C6008C71E0911001EF5FEF7120910F017C
:1000D000E21739F0E0931001F0E0ED5EFE4F9083FF
:1000E00001C082E090910E01892B80930E01FF9157
:1000F000EF919F918F912F910F900FBE0F901F90B6
:1001000018951F920F920FB60F9211248F939F9301
:10011000EF93FF939091120180911101981769F06C
:10012000E0911101EF5FEF71E0931101F0E0ED5C00
:10013000FE4F80818093C60005C08091C1008F7DF5
:100140008093C100FF91EF919F918F910F900FBE0F
:100150000F901F9018951092120110921101109299
:10016000100110920F0197FF03C022E02093C000FE
:1001700090789093C5008093C40088E98093C10073
:1001800086E08093C20008959091100180910F0144
:100190009817A9F090910F019F5F9F71E92FF0E0F0
:1001A000ED5EFE4F208180910E0190930F01109221
:1001B0000E0190E0982F8827820F911D089580E00E
:1001C00091E00895909112019F5F9F71209111011C
:1001D0009217E1F3E92FF0E0ED5CFE4F80839093FE
:1001E00012018091C10080628093C1000895CF9375
:1001F000DF93EC018991882319F00E94E200FACF85
:10020000DF91CF910895CF93DF93FC018491EF01AB
:100210002196882321F00E94E200FE01F7CFDF91B2
:10022000CF9108951F920F920FB60F9211248F93C2
:100230009F93EF93FF9380915C01813019F580913A
:100240005B018150E9F4809158019091590180FF40
:1002500002C05B9A01C05B9880915801909159014E
:1002600096958795909359018093580180915A01F2
:10027000815080935A01811102C010925C0183E089
:1002800080935B0180915E01811152C08091570182
:100290008823E9F0809156018150809356018111A5
:1002A00047C01092570110925D01E0916001F0E0AB
:1002B00080915501EF59FE4F8083809160018F5FDF
:1002C000809360018032A0F11092600131C0809172
:1002D0005D01811110C04A992BC081E080935D01BE
:1002E0001092550194E09093560198E09093540138
:1002F000809353011DC0809156018150B9F48091C3
:1003000053014A9B05C090915501982B909355013C
:10031000880F809353018091540181508093540140
:10032000811103C081E08093570183E080935601DF
:10033000FF91EF919F918F910F900FBE0F901F90A3
:10034000189510925C0110925D0110925E015B9A0B
:10035000539A52989FB7F89484E487BD82E084BD95
:1003600085BDEEE6F0E080818260808316BC9FBF91
:10037000089510925E01089581E080935E010895D2
:1003800090915F01809160019817E1F3E92FF0E00F
:10039000EF59FE4F80819F5F903218F490935F0178
:1003A000089510925F0108959091600181E020917D
:1003B0005F01291301C080E008951092600110923E
:1003C0005F01089590915C0181E0913009F080E037
:1003D000089590915C019130E1F393E090935B017B
:1003E0009AE090935A01880F990B9260909359016B
:1003F0008093580181E080935C010895CF93DF934F
:10040000EC018991882319F00E94E901FACFDF916C
:10041000CF910895CF93DF93FC018491EF01219652
:10042000882321F00E94E901FE01F7CFDF91CF91EF
:100430000895259A2D9887E690E00E94AB000E94CF
:10044000A10178940E94DD01C0E20E94C0018136C2
:10045000E1F70E94E90180E091E00E94F70085B198
:0A0460008C2785B9F2CFF894FFCF86
:0E046A00612073656E74206261636B0A0D0081
:00000001FF
