:100000000C9434000C9446000C9446000C9446006A
:100010000C9446000C9446000C9446000C94460048
:100020000C9446000C9446000C9446000C94460038
:100030000C9446000C9446000C9407010C94460066
:100040000C9446000C9446000C9448000C947600E6
:100050000C9446000C9446000C9446000C94460008
:100060000C9446000C94460011241FBECFEFD8E03C
:10007000DEBFCDBF21E0A0E0B1E001C01D92A337FB
:10008000B207E1F70E940E020C942B020C940000C0
:100090001F920F920FB60F9211242F938F939F935D
:1000A000EF93FF938091C0009091C6008C71E09116
:1000B0000201EF5FEF7120910101E21739F0E09347
:1000C0000201F0E0EB5FFE4F908301C082E090916F
:1000D0000001892B80930001FF91EF919F918F91F7
:1000E0002F910F900FBE0F901F9018951F920F9297
:1000F0000FB60F9211248F939F93EF93FF939091DC
:10010000040180910301981769F0E0910301EF5F0A
:10011000EF71E0930301F0E0EB5DFE4F808180938F
:10012000C60005C08091C1008F7D8093C100FF9102
:10013000EF919F918F910F900FBE0F901F90189588
:100140001092040110920301109202011092010119
:1001500097FF03C022E02093C00090789093C500E1
:100160008093C40088E98093C10086E08093C20038
:10017000089590910201809101019817A9F0909142
:1001800001019F5F9F71E92FF0E0EB5FFE4F20813F
:1001900080910001909301011092000190E0982F4E
:1001A0008827820F911D089580E091E00895909135
:1001B00004019F5F9F71209103019217E1F3E92FE2
:1001C000F0E0EB5DFE4F8083909304018091C100CD
:1001D00080628093C1000895CF93DF93EC018991F1
:1001E000882319F00E94D700FACFDF91CF910895AC
:1001F000CF93DF93FC018491EF012196882321F0B6
:100200000E94D700FE01F7CFDF91CF9108951F9292
:100210000F920FB60F9211248F939F93EF93FF933A
:1002200080914E01813019F580914D018150E9F4A2
:1002300080914A0190914B0180FF02C05B9A01C0FE
:100240005B9880914A0190914B0196958795909388
:100250004B0180934A0180914C01815080934C0165
:10026000811102C010924E0183E080934D01809174
:100270005001811152C0809149018823E9F0809199
:100280004801815080934801811147C01092490173
:1002900010924F01E0915201F0E080914701ED5A38
:1002A000FE4F8083809152018F5F80935201803294
:1002B000A0F11092520131C080914F01811110C004
:1002C0004A992BC081E080934F011092470194E03E
:1002D0009093480198E090934601809345011DC09A
:1002E000809148018150B9F4809145014A9B05C035
:1002F00090914701982B90934701880F8093450177
:1003000080914601815080934601811103C081E0B4
:100310008093490183E080934801FF91EF919F9181
:100320008F910F900FBE0F901F90189510924E0155
:1003300010924F01109250015B9A539A52989FB7B6
:10034000F89484E487BD82E084BD85BDEEE6F0E0EC
:1003500080818260808316BC9FBF089510925001F7
:10036000089581E08093500108959091510180910A
:1003700052019817E1F3E92FF0E0ED5AFE4F80812A
:100380009F5F903218F4909351010895109251019B
:1003900008959091520181E020915101291301C0EB
:1003A00080E00895109252011092510108959091A9
:1003B0004E0181E0913009F080E0089590914E0166
:1003C0009130E1F393E090934D019AE090934C01CA
:1003D000880F990B926090934B0180934A0181E0C2
:1003E00080934E010895CF93DF93EC018991882388
:1003F00019F00E94DE01FACFDF91CF910895CF93DB
:10040000DF93FC018491EF012196882321F00E9463
:10041000DE01FE01F7CFDF91CF910895259A2D9847
:1004200087E690E00E94A0000E9496017894C0E2C6
:1004300082E60E94D70082E60E94DE0185B18C2709
:1004400085B92FEF89E698E1215080409040E1F78F
:0A04500000C00000EDCFF894FFCFCC
:00000001FF
