:100000000C9434000C9451000C9451000C94190180
:100010000C9451000C9451000C9451000C9451001C
:100020000C9451000C9451000C9451000C9451000C
:100030000C9451000C9451000C9451000C945100FC
:100040000C9451000C9451000C9453000C948100BA
:100050000C9451000C9451000C9451000C945100DC
:100060000C9451000C94510011241FBECFEFD8E026
:10007000DEBFCDBF11E0A0E0B1E0EEE6F6E002C0E9
:1000800005900D92A230B107D9F721E0A2E0B1E0CE
:1000900001C01D92AB39B207E1F70E94F6020C9441
:1000A00035030C9400001F920F920FB60F9211248B
:1000B0002F938F939F93EF93FF938091C000909124
:1000C000C6008C71E0910401EF5FEF712091030194
:1000D000E21739F0E0930401F0E0E95FFE4F90830E
:1000E00001C082E090910201892B80930201FF916F
:1000F000EF919F918F912F910F900FBE0F901F90B6
:1001000018951F920F920FB60F9211248F939F9301
:10011000EF93FF939091060180910501981769F084
:10012000E0910501EF5FEF71E0930501F0E0E95D1B
:10013000FE4F80818093C60005C08091C1008F7DF5
:100140008093C100FF91EF919F918F910F900FBE0F
:100150000F901F90189510920601109205011092B1
:1001600004011092030197FF03C022E02093C00016
:1001700090789093C5008093C40088E98093C10073
:1001800086E08093C200089590910401809103015C
:100190009817A9F0909103019F5F9F71E92FF0E0FC
:1001A000E95FFE4F2081809102019093030110923C
:1001B000020190E0982F8827820F911D089580E01A
:1001C00091E00895909106019F5F9F712091050134
:1001D0009217E1F3E92FF0E0E95DFE4F8083909301
:1001E00006018091C10080628093C1000895CF9381
:1001F000DF93EC018991882319F00E94E200FACF85
:10020000DF91CF910895CF93DF93FC018491EF01AB
:100210002196882321F00E94E200FE01F7CFDF91B2
:10022000CF91089520E001972FEF8F3F9207D9F7E4
:1002300008951F920F920FB60F9211240F931F93E0
:100240002F933F934F935F936F937F938F939F93DE
:10025000AF93BF93CF93DF93EF93FF93E09153015D
:10026000F0915401808190E00090520102C0959578
:1002700087950A94E2F780FD4DC080914F019091DF
:1002800050010E94120108E010E0D1E0C0E080912E
:100290004D0190914E010E941201E0915301F091A5
:1002A0005401808190E00090520102C0959587959D
:1002B0000A94E2F780FF02C0CD2B03C08D2F8095FA
:1002C000C823DD0F0150110911F780914B01909166
:1002D0004C010E94120180915A012091590190E035
:1002E00001968F73992730E08217930769F0E091A8
:1002F0005A01F0E0E55AFE4FC08380915A018F5FAA
:100300008F7380935A0106C081E090E0909348017A
:1003100080934701FF91EF91DF91CF91BF91AF9112
:100320009F918F917F916F915F914F913F912F910D
:100330001F910F910F900FBE0F901F9018950F9364
:100340009093580180935701709356016093550123
:100350005093540140935301209352010093510153
:100360000F910895CF93DF9310925A011092590183
:100370001092480110924701E0915701F091580105
:100380002081C1E0D0E0AE010090510102C0440FD5
:10039000551F0A94E2F7422B4083E0915501F091FA
:1003A00056012081AE010090510102C0440F551F3B
:1003B0000A94E2F7422B4083209152012F3FE9F04B
:1003C000A0915701B09158014C91FE0101C0EE0F70
:1003D0002A95EAF73E2F309534233C93E09155015E
:1003E000F09156012081AE010090520102C0440FED
:1003F000551F0A94E2F7242B2083A7E0B0E09B016D
:10040000AC010E941B039B01AC0160E074E284EF2D
:1004100090E00E94F902C901069790934A018093E7
:1004200049012350310930934C0120934B01309303
:100430004E0120934D019C01369527952550310999
:100440003093500120934F010E941201789480E074
:10045000DF91CF910895809152018F3F11F010925A
:100460006B000895809152018F3FA1F09091590146
:1004700080915A01981771F0E0915901F0E0E55A26
:10048000FE4F8081909159019F5F9F739093590116
:1004900090E008958FEF9FEF089580915A01209189
:1004A000590190E0805C9F4F821B91098F739927BF
:1004B00008958091470110924801109247010895D4
:1004C000CF92DF92FF920F931F93CF93DF932091F0
:1004D000490130914A012115310509F45FC0082F07
:1004E000FFB6F894E0915501F0915601808121E02A
:1004F00030E00090510102C0220F331F0A94E2F74E
:100500002095282320838091490190914A010596E6
:100510000E941201C8E0D0E011E0CC24C394D12C99
:10052000E0915501F091560120915101802F8123D6
:1005300041F03081C60101C0880F2A95EAF7832B6C
:100540000AC09081A60102C0440F551F2A95E2F708
:10055000842F8095892380838091490190914A015D
:100560000E941201110F2197D9F6E0915501F091E7
:100570005601208181E090E00090510102C0880F77
:10058000991F0A94E2F7822B8083FFBE8091490174
:1005900090914A010E94120121E030E0C901DF91EF
:1005A000CF911F910F91FF90DF90CF900895809190
:1005B00052018F3F39F08FB7F89410925A01109280
:1005C00059018FBF08959091590180915A01981750
:1005D00051F0E0915901F0E0E55AFE4F8081082E7C
:1005E000000C990B08958FEF9FEF089580E090E045
:1005F0000895A1E21A2EAA1BBB1BFD010DC0AA1F64
:10060000BB1FEE1FFF1FA217B307E407F50720F07B
:10061000A21BB30BE40BF50B661F771F881F991FF6
:100620001A9469F760957095809590959B01AC013F
:10063000BD01CF0108950E942603A59F900DB49F90
:10064000900DA49F800D911D11240895A29FB001CB
:10065000B39FC001A39F700D811D1124911DB29FF6
:0E066000700D811D1124911D0895F894FFCF97
:02066E00050085
:00000001FF
