:100000000C9434000C9451000C9451000C94510049
:100010000C9451000C9451000C9451000C9451001C
:100020000C9451000C9451000C9451000C9451000C
:100030000C9451000C9451000C9412010C9451003A
:100040000C9451000C9451000C9453000C948100BA
:100050000C9451000C9451000C9451000C945100DC
:100060000C9451000C94510011241FBECFEFD8E026
:10007000DEBFCDBF11E0A0E0B1E0E0E8F4E002C0F7
:1000800005900D92AC30B107D9F721E0ACE0B1E0BA
:1000900001C01D92AF37B207E1F70E9419020C941C
:1000A0003E020C9400001F920F920FB60F92112483
:1000B0002F938F939F93EF93FF938091C000909124
:1000C000C6008C71E0910E01EF5FEF7120910D0180
:1000D000E21739F0E0930E01F0E0EF5EFE4F9083FF
:1000E00001C082E090910C01892B80930C01FF915B
:1000F000EF919F918F912F910F900FBE0F901F90B6
:1001000018951F920F920FB60F9211248F939F9301
:10011000EF93FF939091100180910F01981769F070
:10012000E0910F01EF5FEF71E0930F01F0E0EF5C02
:10013000FE4F80818093C60005C08091C1008F7DF5
:100140008093C100FF91EF919F918F910F900FBE0F
:100150000F901F9018951092100110920F0110929D
:100160000E0110920D0197FF03C022E02093C00002
:1001700090789093C5008093C40088E98093C10073
:1001800086E08093C200089590910E0180910D0148
:100190009817A9F090910D019F5F9F71E92FF0E0F2
:1001A000EF5EFE4F208180910C0190930D01109223
:1001B0000C0190E0982F8827820F911D089580E010
:1001C00091E00895909110019F5F9F7120910F0120
:1001D0009217E1F3E92FF0E0EF5CFE4F80839093FC
:1001E00010018091C10080628093C1000895CF9377
:1001F000DF93EC018991882319F00E94E200FACF85
:10020000DF91CF910895CF93DF93FC018491EF01AB
:100210002196882321F00E94E200FE01F7CFDF91B2
:10022000CF9108951F920F920FB60F9211248F93C2
:100230009F93EF93FF9380915A01813019F580913C
:1002400059018150E9F4809156019091570180FF46
:1002500002C05B9A01C05B98809156019091570152
:1002600096958795909357018093560180915801F8
:10027000815080935801811102C010925A0183E08D
:100280008093590180915C01811152C08091550188
:100290008823E9F0809154018150809354018111A9
:1002A00047C01092550110925B01E0915E01F0E0B1
:1002B00080915301E15AFE4F808380915E018F5FF0
:1002C00080935E018032A0F110925E0131C0809176
:1002D0005B01811110C04A992BC081E080935B01C2
:1002E0001092530194E09093540198E0909352013E
:1002F000809351011DC0809154018150B9F48091C7
:1003000051014A9B05C090915301982B9093530142
:10031000880F809351018091520181508093520146
:10032000811103C081E08093550183E080935401E3
:10033000FF91EF919F918F910F900FBE0F901F90A3
:10034000189510925A0110925B0110925C015B9A11
:10035000539A52989FB7F89484E487BD82E084BD95
:1003600085BDEEE6F0E080818260808316BC9FBF91
:10037000089510925C01089581E080935C010895D6
:1003800090915D0180915E019817E1F3E92FF0E013
:10039000E15AFE4F80819F5F903218F490935D0187
:1003A000089510925D01089590915E0181E0209181
:1003B0005D01291301C080E0089510925E01109242
:1003C0005D01089590915A0181E0913009F080E03B
:1003D000089590915A019130E1F393E0909359017F
:1003E0009AE090935801880F990B9260909357016F
:1003F0008093560181E080935A010895CF93DF9353
:10040000EC018991882319F00E94E901FACFDF916C
:10041000CF910895CF93DF93FC018491EF01219652
:10042000882321F00E94E901FE01F7CFDF91CF91EF
:100430000895259A2D9887E690E00E94AB000E94CF
:10044000A10178940E94DD0180E091E00E94F70014
:100450000E94C0018136E1F70E94DD0187E091E052
:100460000E94FE012FEF86E791E0215080409040EE
:10047000E1F700C000000E94C001FDCFF894FFCF5B
:0C048000496E69740A0D002B2B2B000044
:00000001FF
