:100000000C9434000C9451000C9451000C94510049
:100010000C9451000C9451000C9451000C9451001C
:100020000C9451000C9451000C9451000C9451000C
:100030000C9451000C9451000C9412010C9451003A
:100040000C9451000C9451000C9453000C948100BA
:100050000C9451000C9451000C9451000C945100DC
:100060000C9451000C94510011241FBECFEFD8E026
:10007000DEBFCDBF11E0A0E0B1E0ECE6F5E002C0EC
:1000800005900D92AA31B107D9F721E0AAE1B1E0BC
:1000900001C01D92AD38B207E1F70E9419020C941D
:1000A000B4020C9400001F920F920FB60F9211240D
:1000B0002F938F939F93EF93FF938091C000909124
:1000C000C6008C71E0911C01EF5FEF7120911B0164
:1000D000E21739F0E0931C01F0E0E15EFE4F9083FF
:1000E00001C082E090911A01892B80931A01FF913F
:1000F000EF919F918F912F910F900FBE0F901F90B6
:1001000018951F920F920FB60F9211248F939F9301
:10011000EF93FF9390911E0180911D01981769F054
:10012000E0911D01EF5FEF71E0931D01F0E0E15CF4
:10013000FE4F80818093C60005C08091C1008F7DF5
:100140008093C100FF91EF919F918F910F900FBE0F
:100150000F901F90189510921E0110921D01109281
:100160001C0110921B0197FF03C022E02093C000E6
:1001700090789093C5008093C40088E98093C10073
:1001800086E08093C200089590911C0180911B012C
:100190009817A9F090911B019F5F9F71E92FF0E0E4
:1001A000E15EFE4F208180911A0190931B01109215
:1001B0001A0190E0982F8827820F911D089580E002
:1001C00091E0089590911E019F5F9F7120911D0104
:1001D0009217E1F3E92FF0E0E15CFE4F808390930A
:1001E0001E018091C10080628093C1000895CF9369
:1001F000DF93EC018991882319F00E94E200FACF85
:10020000DF91CF910895CF93DF93FC018491EF01AB
:100210002196882321F00E94E200FE01F7CFDF91B2
:10022000CF9108951F920F920FB60F9211248F93C2
:100230009F93EF93FF9380916801813019F580912E
:1002400067018150E9F4809164019091650180FF1C
:1002500002C05B9A01C05B98809164019091650136
:1002600096958795909365018093640180916601CE
:10027000815080936601811102C01092680183E071
:100280008093670180916A01811152C0809163015E
:100290008823E9F08091620181508093620181118D
:1002A00047C01092630110926901E0916C01F0E087
:1002B00080916101E359FE4F808380916C018F5FD3
:1002C00080936C018032A0F110926C0131C080915A
:1002D0006901811110C04A992BC081E080936901A6
:1002E0001092610194E09093620198E09093600114
:1002F00080935F011DC0809162018150B9F48091AB
:100300005F014A9B05C090916101982B9093610118
:10031000880F80935F01809160018150809360011C
:10032000811103C081E08093630183E080936201C7
:10033000FF91EF919F918F910F900FBE0F901F90A3
:100340001895109268011092690110926A015B9AE7
:10035000539A52989FB7F89484E487BD82E084BD95
:1003600085BDEEE6F0E080818260808316BC9FBF91
:10037000089510926A01089581E080936A010895BA
:1003800090916B0180916C019817E1F3E92FF0E0F7
:10039000E359FE4F80819F5F903218F490936B0178
:1003A000089510926B01089590916C0181E0209165
:1003B0006B01291301C080E0089510926C01109226
:1003C0006B0108959091680181E0913009F080E01F
:1003D0000895909168019130E1F393E09093670163
:1003E0009AE090936601880F990B92609093650153
:1003F0008093640181E0809368010895CF93DF9337
:10040000EC018991882319F00E94E901FACFDF916C
:10041000CF910895CF93DF93FC018491EF01219652
:10042000882321F00E94E901FE01F7CFDF91CF91EF
:100430000895CF93DF9300D01F92CDB7DEB7259AF2
:100440002D9887E690E00E94AB000E94A10178946D
:100450000E94DD0180E091E00E94F7005E0124E04F
:10046000A20EB11C80E2D82E0E94C4008136E1F7B2
:100470000E94E9010E94D4018823E1F30E94C00197
:100480000E94DD018FEF93ECE9E081509040E04065
:10049000E1F700C0000087E091E00E94FE01FFEF5D
:1004A00020E782E0F15020408040E1F700C00000EA
:1004B0008E010F5F1F4F78010E94D4018823E1F362
:1004C0008BE20E94E9010E94C001F80181938F0133
:1004D000EA15FB0589F71B82C7010E94F70084E03B
:1004E00091E00E94F7000E94DD018BE091E00E9404
:1004F000FE018DE00E94E901FFEF20E782E0F1506C
:1005000020408040E1F700C000000E94C0018983C4
:100510000E94C0018A830E94C0011B82C7010E9401
:10052000F70080E191E00E94F70084E191E00E94F1
:10053000FE018DE00E94E9019FEFE0E7F2E09150BB
:10054000E040F040E1F700C000000E94C001898354
:100550000E94C0018A830E94C0011B8285B18D2543
:0C05600085B90E94DD0180CFF894FFCF28
:10056C00496E69740A0D002B2B2B00415444420038
:0A057C00202020004154434E0000EF
:00000001FF
